:100000000C94EF000C94B9070C9492070C946B07B6
:100010000C9444070C9417010C9417010C941D07C1
:100020000C9417010C9417010C94E0070C94AB0886
:100030000C9417010C9417010C9417010C941701E0
:100040000C9417010C9417010C9417010C941701D0
:100050000C9417010C9417010C9417010C94290BA4
:100060000C9417010C9417010C9417010C941701B0
:100070000C9417010C9417010C9417010C941701A0
:100080000C9417010C9417010C9417010C94170190
:100090000C9417010C9417010C9417010C94170180
:1000A0000C9417010C9417010C941701D50BD80B65
:1000B000C70BCB0BD10BF90BF90BF90BDC0BE00BDE
:1000C000E40BEA0BEE0BF90BF40B080B0002020237
:1000D00001000904000001020200000524001001D3
:1000E0000524010101042402060524060001070578
:1000F000810310004009040100020A000000070506
:1001000002024000000705830240000004030904C6
:1001100012010002EF0201404123370000010102F9
:10012000030141726475696E6F204C4C430041724B
:100130006475696E6F204D6963726F000000000086
:10014000240027002A002D003000000000002300BA
:10015000260029002C002F000000000025002800A8
:100160002B002E00310004040404040304050202E1
:100170000202040302020202060606060606040440
:1001800002020204040408020110408040102040D2
:10019000804080080204018040201002011080107D
:1001A000204040200000000200090F00000304016D
:1001B000000C000000000000000000000000000033
:1001C000000000050C0901A1018504150026FF03AC
:1001D00019002AFF03950475108100C08D131124A6
:1001E0001FBECFEFDAE0DEBFCDBF12E0A0E0B1E08E
:1001F000E8EBFAE202C005900D92A230B107D9F700
:1002000023E0A2E0B2E001C01D92AA34B207E1F7F8
:1002100010E0CFEED0E004C02197FE010E9434151B
:10022000CE3ED107C9F70E94860F0C945A150C9444
:100230000000089540911202509113022091100283
:100240003091110242175307B4F49091E800957071
:10025000E1F39091E80092FD19C08093F100809144
:1002600012029091130201968F739927892B19F42A
:100270008EEF8093E8008091120290911302019614
:10028000909313028093120281E0089580E0089514
:10029000DF92EF92FF920F931F93CF93DF93D82EAD
:1002A000F92EE42E062F10E0C8010196880F0E9457
:1002B0001A0183E00E941A01CD2DDF2D0C0F1D1FA6
:1002C000C017D10789F0E7FE03C0FE01849101C089
:1002D00088810E941A01F82E80E00E941A018F2165
:1002E00021968111EDCF01C081E0DF91CF911F9167
:1002F0000F91FF90EF90DF9008952FB7F8948770DB
:100300008093E9009091E800892F807295FF04C0E6
:100310009091F20080E4891B2FBF0895615030F066
:100320002091F100FC0120830196F8CF289A84E601
:100330008093A2020895CF92DF92EF92FF920F93E3
:100340001F93CF93DF936C017A018B01C0E0D0E063
:10035000CE15DF0581F0D8016D918D01D601ED91AB
:10036000FC910190F081E02DC6010995892B11F0D7
:100370002196EECF7E01C701DF91CF911F910F91A2
:10038000FF90EF90DF90CF900895CF93DF931F926F
:10039000CDB7DEB76983DC01ED91FC910280F3817A
:1003A000E02D41E050E0BE016F5F7F4F09950F9057
:1003B000DF91CF91089583E08093E9008091F2006E
:1003C000882319F08AE38093E800089583E00E946F
:1003D0007D0190E00895FC018485958597FD0BC013
:1003E0009FB7F89482E08093E9008091F2009FBF6C
:1003F00090E0019608959FB7F89482E08093E90019
:100400008091F2009FBF90E00895089580E090E011
:1004100008950F931F93CF93DF9320910F022F5FC7
:10042000322F377030930F0220FF02C020E801C046
:1004300020E031FD2064347009F02062205FFC016F
:10044000EC01239600E011E06485662331F070E052
:10045000C8010E9420156F5F01C060E06187322FE4
:10046000369F030E30E0311D1124311102C0168277
:1004700002C031503683662311F061506187319696
:10048000CE17DF0709F7DF91CF911F910F910895E4
:1004900080E991E008953F9A08950F931F93CF93B9
:1004A000DF93CDB7DEB762970FB6F894DEBF0FBE0D
:1004B000CDBF8C01F901DC011C968C917A83698394
:1004C0005C834B835E834D8390819D8791819E8762
:1004D00092819F87813029F4CE0101960E94090202
:1004E00006C01C861B861A86198618861F8283E022
:1004F000888B1A8A198AD801ED91FC910484F585BC
:10050000E02DBE016F5F7F4FC801099562960FB65F
:10051000F894DEBF0FBECDBFDF91CF911F910F9139
:1005200008950F931F93CF93DF93CDB7DEB76297F4
:100530000FB6F894DEBF0FBECDBF8C01F901DC0110
:100540001C968C917A8369835C834B835E834D8395
:1005500090819D8791819E8792819F87813029F428
:10056000CE0101960E94090206C01C861B861A86CF
:10057000198618861F82188A1A8A198AD801ED915D
:10058000FC910484F585E02DBE016F5F7F4FC801AB
:10059000099562960FB6F894DEBF0FBECDBFDF910E
:1005A000CF911F910F910895CF93DF9300D000D08A
:1005B00000D0CDB7DEB7AB011C821D821E82DC01EC
:1005C000ED91FC910190F081E02D19821A821B823D
:1005D0009E012F5F3F4FBE016C5F7F4F09952696AE
:1005E0000FB6F894DEBF0FBECDBFDF91CF91089557
:1005F000FC0185859685089580E090E008957F92BE
:100600008F929F92AF92BF92CF92DF92EF92FF9222
:100610000F931F93CF93DF93C82E8B017A018091A4
:10062000A302811103C08FEF9FEF74C08091160267
:1006300080FF05C08091E00082608093E000CE2DB5
:10064000DF2DD12C8AEFB82E8C2D8770982E8C2D13
:100650008072882E8C2D8074782E9AE3A92E209794
:1006600019F4DD2009F451C08C2D0E947D01811107
:100670000AC0BA94BB20B9F261E070E080E090E07B
:100680000E94250EECCF282F30E0C217D3070CF4C0
:100690008C2F9FB7F8949092E9002091E80025FFF5
:1006A00032C0282F30E0C21BD30B882029F08150A4
:1006B000A0F01092F100FBCFF801C7FE0AC08150F4
:1006C00050F044914093F1003196F9CF419140931D
:1006D000F1008150D8F7020F131FDD2019F0A0920E
:1006E000E8000AC08091E80085FD08C0A092E800FB
:1006F000DD24D394209739F0D12C05C0209719F42C
:100700007110A092E8009FBFAACF5D9A84E6809303
:100710001502C701DF91CF911F910F91FF90EF90CC
:10072000DF90CF90BF90AF909F908F907F90089573
:10073000CF93DF93EC0180912501882331F083E092
:100740000E94FF021816190634F081E090E09B83A6
:100750008A8380E090E0DF91CF9108950F931F93FB
:10076000CF93DF931F92CDB7DEB78C01FC01848558
:10077000958597FF0EC0CE0101960E942D0D019721
:1007800019F4898190E002C08FEF9FEFF8019587FF
:100790008487F801848595850F90DF91CF911F9113
:1007A0000F910895CF93DF931F92CDB7DEB7FC0171
:1007B0008485958597FD05C02FEF3FEF358724870A
:1007C0000BC0CE0101960E942D0D019719F489816D
:1007D00090E002C08FEF9FEF0F90DF91CF910895CF
:1007E000EF92FF920F931F93CF93DF931F92CDB79A
:1007F000DEB78B017A0180910703811105C00E9449
:100800006F0D81E08093070384E0898341E050E02D
:10081000BE016F5F7F4F8091F9020E94FF0297FD3A
:1008200007C08091F902A701B80180640E94FF020D
:100830000F90DF91CF911F910F91FF90EF9008954E
:100840004F925F926F927F928F92AF92BF92CF92B0
:10085000DF92EF920F931F93CF93DF933C01EB0155
:100860000E94000EF30127853089621B730B6A30EA
:100870007105B0F3F894E881F98178B1706868B1D6
:100880006F7768B9CA848F812C2D281B822F2F8304
:10089000BF844A805B801D850C85DE841F5F0F5FEF
:1008A000D3949E813885A984EB844181D20120E0D4
:1008B000C32F522F322F3181442788943111380FA2
:1008C00008F43FEF8195889410FD430F4795889475
:1008D00011FD430F4795889412FD430F4795889467
:1008E00013FD430F4795889414FD430F4795889453
:1008F00015FD430F4795889416FD430F479588943F
:1009000017FD430F47958894232F1111242F8C0D29
:10091000422F002C78B900C047FF68B930812227E8
:10092000889400C000C0002C68B93111390F00C094
:10093000002C78B900C046FF68B908F43FEF9195E4
:10094000889400C000C0002C68B900FD230F00C0CF
:10095000002C78B900C045FF68B92795889401FD3F
:10096000230F00C000C0002C68B92795889400C0F0
:10097000002C78B900C044FF68B902FD230F279509
:10098000889400C000C0002C68B903FD230F00C08C
:10099000002C78B900C043FF68B92795889404FDFE
:1009A000230F00C000C0002C68B92795889400C0B0
:1009B000002C78B900C042FF68B905FD230F2795C8
:1009C000889400C000C0002C68B906FD230F00C049
:1009D000002C78B900C041FF68B92795889407FDBD
:1009E000230F00C000C0002C68B92795889400C070
:1009F000002C78B900C040FF68B9432F0111422F85
:100A00009A0D00C000C0002C68B900C000C0002CC6
:100A100078B900C047FF68B932812227889400C0A6
:100A200000C0002C68B931113C0F00C0002C78B90F
:100A300000C046FF68B908F43FEFEB0DF11D00C0A0
:100A400000C0002C68B9D0FC230F00C0002C78B97E
:100A500000C045FF68B927958894D1FC230F00C0DA
:100A600000C0002C68B92795889400C0002C78B984
:100A700000C044FF68B9D2FC230F2795889400C0BA
:100A800000C0002C68B9D3FC230F00C0002C78B93B
:100A900000C043FF68B927958894D4FC230F00C099
:100AA00000C0002C68B92795889400C0002C78B944
:100AB00000C042FF68B9D5FC230F2795889400C079
:100AC00000C0002C68B9D6FC230F00C0002C78B9F8
:100AD00000C041FF68B927958894D7FC230F00C058
:100AE00000C0002C68B92795889400C0002C78B904
:100AF00000C040FF68B9432FD110422FC19500C0FC
:100B000000C0002C68B9CE0D00C000C078B900C08C
:100B100047FF68B931812227889400C000C0002CAB
:100B200068B93111380F00C0002C78B900C046FFF9
:100B300068B908F43FEF8195889400C000C0002C8C
:100B400068B910FD230F00C0002C78B900C045FF24
:100B500068B92795889411FD230F00C000C0002CB0
:100B600068B92795889400C0002C78B900C044FF6C
:100B700068B912FD230F2795889400C000C0002C8F
:100B800068B913FD230F00C0002C78B900C043FFE3
:100B900068B92795889414FD230F00C000C0002C6D
:100BA00068B92795889400C0002C78B900C042FF2E
:100BB00068B915FD230F2795889400C000C0002C4C
:100BC00068B916FD230F00C0002C78B900C041FFA2
:100BD00068B92795889417FD230F00C000C0002C2A
:100BE00068B92795889400C0002C78B900C040FFF0
:100BF00068B9432F1111422F8C0D00C000C0002C8A
:100C000068B9119709F086CE20EE31E0D2010E943A
:100C10003A15DC01CB01F4E0B695A7959795879539
:100C2000FA95D1F720E030E0B901EAE94E9E040CD4
:100C3000611D5E9E600D711D1124650D711D860F75
:100C4000971FA11DB11D893E43E09407A105B10581
:100C500008F434C0885E9340A109B10942E0B6951A
:100C6000A795979587954A95D1F747E0849F080EF9
:100C7000211D949F200D311D1124290F311D6091DC
:100C80000E0270E0860F971F820F931F40919A0209
:100C900050919B0260919C0270919D02292F3327F5
:100CA000420F531F611D711D40939A0250939B0286
:100CB00060939C0270939D0280930E0278940E9430
:100CC000000EF301708B6787DF91CF911F910F9119
:100CD000EF90DF90CF90BF90AF908F907F906F900C
:100CE0005F904F900895CF92DF92EF92FF920F9313
:100CF0001F930E94000EC0900A02D0900B02E09059
:100D00000C02F0900D020091000110910101209160
:100D1000020130910301DC01CB018C199D09AE0960
:100D2000BF0980179107A207B307C0F0809109029D
:100D30008093080289B18170809309029091080222
:100D400080910902981751F00E94000E60930A02E8
:100D500070930B0280930C0290930D021F910F91E0
:100D6000FF90EF90DF90CF900895CF92DF92EF92B7
:100D7000FF920F931F930E94000EC0900402D09028
:100D80000502E0900602F090070200910001109128
:100D900001012091020130910301DC01CB018C198A
:100DA0009D09AE09BF0980179107A207B307F0F1AB
:100DB000809103028093020289B1869581708093AD
:100DC00003029091020280910302981779F10E9428
:100DD000000E6093040270930502809306029093C4
:100DE0000702909103028091090298130CC0809130
:100DF000180290911902A0911A02B0911B0201965B
:100E0000A11DB11D0BC08091180290911902A091F3
:100E10001A02B0911B020197A109B109809318022F
:100E200090931902A0931A02B0931B021F910F9185
:100E3000FF90EF90DF90CF9008951F920F920FB622
:100E40000F9211242F933F934F935F936F937F9350
:100E50008F939F93AF93BF93EF93FF93E0912E01F6
:100E6000F0912F010995FF91EF91BF91AF919F9163
:100E70008F917F916F915F914F913F912F910F9043
:100E80000FBE0F901F9018951F920F920FB60F92E2
:100E900011242F933F934F935F936F937F938F937F
:100EA0009F93AF93BF93EF93FF93E0912C01F09149
:100EB0002D010995FF91EF91BF91AF919F918F9176
:100EC0007F916F915F914F913F912F910F900FBE46
:100ED0000F901F9018951F920F920FB60F9211242A
:100EE0002F933F934F935F936F937F938F939F9332
:100EF000AF93BF93EF93FF93E0912A01F0912B0101
:100F00000995FF91EF91BF91AF919F918F917F9143
:100F10006F915F914F913F912F910F900FBE0F9066
:100F20001F9018951F920F920FB60F9211242F93B6
:100F30003F934F935F936F937F938F939F93AF9361
:100F4000BF93EF93FF93E0912801F0912901099558
:100F5000FF91EF91BF91AF919F918F917F916F9191
:100F60005F914F913F912F910F900FBE0F901F9067
:100F700018951F920F920FB60F9211242F933F9343
:100F80004F935F936F937F938F939F93AF93BF9391
:100F9000EF93FF93E0912601F09127010995FF91CE
:100FA000EF91BF91AF919F918F917F916F915F91E1
:100FB0004F913F912F910F900FBE0F901F9018955A
:100FC0001F920F920FB60F9211248F939F938091CF
:100FD000E1009091E100937F9093E10083FF0FC0C7
:100FE0001092E90091E09093EB001092EC0092E3F4
:100FF0009093ED001092A30298E09093F00082FF8E
:1010000020C093E09093E9009091F200992319F0A9
:101010009AE39093E80090911502992339F090910A
:101020001502915090931502992389F19091A20293
:10103000992339F09091A20291509093A2029923A2
:1010400041F184FF10C08091E2008E7E8160809328
:10105000E2008091E1008F7E8093E1008091160292
:101060008E7E806111C080FF16C08091E2008E7E6E
:1010700080618093E2008091E1008E7E8093E100A8
:10108000809116028E7E81608093160204C05D9866
:10109000CDCF2898D6CF9F918F910F900FBE0F90F4
:1010A0001F901895DF92EF92FF920F931F93CF93AB
:1010B000DF93D82E8A017B01E40EF51EEB01CE15DD
:1010C000DF0571F0D7FE03C0FE01849101C0888165
:1010D0000E941A0121968111F2CF8FEF9FEF01C07C
:1010E000C801DF91CF911F910F91FF90EF90DF909A
:1010F00008950F931F93CF93DF931F92CDB7DEB761
:1011000082E0898342E450E06AEC70E080E80E946B
:1011100052080E945B0DDC0112960D911C911397F1
:101120000115110589F0D801ED91FC910280F38140
:10113000E02DBE016F5F7F4FC801099597FD04C088
:10114000F80100851185ECCF89810F90DF91CF9157
:101150001F910F9108951F920F920FB60F921124B5
:10116000CF92DF92EF92FF920F931F932F933F93B3
:101170004F935F936F937F938F939F93AF93BF939F
:10118000EF93FF93CF93DF93CDB7DEB76C97DEBFBE
:10119000CDBF1092E9008091E80083FFFBC168E0B9
:1011A000CE0145960E948E0182EF8093E8008D89E2
:1011B00087FF05C09091E80090FFFCCF03C09EEF31
:1011C0009093E800982F907609F0C6C09E894F89C9
:1011D000588D2F89F88C91110CC0803829F480919A
:1011E00017028093F10002C01092F1001092F100FA
:1011F00045C1913051F4811141C14130510509F08F
:101200003DC1809117028D7F0BC0933061F4811135
:1012100035C14130510509F031C18091170282601A
:10122000809317022BC1953049F48091E80080FF2C
:10123000FCCF822F80688093E30020C1963009F0B4
:101240005EC00B8D1C8D22E01092E90010921302FB
:1012500010921202F21232C0109211021092100279
:101260000E94790899E0BE016F5F7F4FDB01E92F93
:101270001D92EA95E9F79983FA8291E09E8390EABC
:1012800098879AEF99872091120230911302275F75
:101290003F4F3C832B838D831092E9001092130201
:1012A00010921202109311020093100249E050E0D4
:1012B00080E00E9452080E947908E0C01093110259
:1012C000009310020E945B0DDC0112960D911C919F
:1012D00013970115110509F4BBC0D801ED91FC91DC
:1012E0000480F581E02DBE016B5E7F4FC80109953A
:1012F000009709F0C7C0F80100851185EACF973043
:1013000009F445C1983021F481E08093F100B6C022
:10131000993009F0B3C0837009F039C1E3E4F1E01A
:1013200081E031E096E32081211109C08EE78093AE
:10133000EA001092EA008F898093A3029FC08093F5
:10134000E9003093EB0021912093EC009093ED00A5
:101350008F5F873041F7EACF8B8D9C8D1092E9002B
:1013600010921302109212029093110280931002B5
:10137000898D811153C08E899D89913A49F48132BA
:1013800009F005C147E050E06EE171E080E0BBC0CC
:10139000913209F0FCC0833269F48F89988DA0E006
:1013A000B0E080931A0190931B01A0931C01B093AD
:1013B0001D0164C0803269F48091E80082FFFCCF97
:1013C00067E08EE191E00E948E018BEF8093E80050
:1013D00055C0823209F052C08F8980932501EEEF0B
:1013E000FFE7859194918B3F9C4D19F0E0E0F8E088
:1013F00002C0EEEFFAE080911E0190911F01A091D2
:101400002001B0912101803B9440A105B10509F074
:101410009EC08091250180FF79C099C00E945B0D1C
:10142000FC01028113810115110509F4B0C0D80136
:10143000ED91FC910190F081E02DBE016B5E7F4F3C
:10144000C801099581111AC0F80100851185EBCFFB
:10145000F1E0FF1609F44EC0F3E0FF1298C08F8947
:10146000882309F44AC0823089F440E86DE08EE2B6
:1014700091E00E944801882309F489C08EEF80938F
:10148000E80088C018161906CCF381C0813029F411
:1014900040E86BE082E291E0ECCF833009F077C066
:1014A0000E945B0DDC011296ED90FC9013978E016B
:1014B0000F5F1F4F6801E114F10479F0D701ED913E
:1014C000FC910680F781E02DB801C7010995080F4E
:1014D000111DF701E084F184EECFD8011C92F601D2
:1014E00001900020E9F73197BF016C197D0940E0B8
:1014F000C601BFCF60E171E002C06CE071E0FB01AA
:10150000449150E080E80E945208B8CFEE3F2AE0B4
:10151000F20751F0808191818737A7E79A0721F080
:101520009093FF0A8093FE0A87E797E79183808371
:1015300080916000809314029BE088E10FB6F894DC
:10154000A895809360000FBE9093600097CF808134
:1015500091818737974709F091CFA89580916000D6
:101560008861809360008091140280936000EE3F58
:10157000BAE0FB0739F08091FE0A9091FF0A91834F
:1015800080837CCF1092FF0A1092FE0A77CF81E20F
:101590008093EB006C960FB6F894DEBF0FBECDBF04
:1015A000DF91CF91FF91EF91BF91AF919F918F917B
:1015B0007F916F915F914F913F912F911F910F916B
:1015C000FF90EF90DF90CF900F900FBE0F901F9085
:1015D0001895CF93DF93880F991FFC01EC5FFE4FA6
:1015E000C081D181E1E1F3E080E090E0219131918F
:1015F0000196232B41F4880F991FFC01E15FFC4FFA
:10160000D183C08303C08430910581F748E050E066
:1016100061E173E08FE093E00E94F003EFE0F3E01C
:1016200087E193E022813381C217D30711F413823B
:10163000128232968E179F07A9F748E050E061E1C9
:1016400073E08FE093E0DF91CF910C94F0030E9460
:1016500055151F920F920FB60F9211242F933F939F
:101660008F939F93AF93BF9380919A0290919B0227
:10167000A0919C02B0919D023091990223E0230F2A
:101680002D3720F40196A11DB11D05C026E8230FBA
:101690000296A11DB11D2093990280939A02909306
:1016A0009B02A0939C02B0939D0280919E02909118
:1016B0009F02A091A002B091A1020196A11DB11DAF
:1016C00080939E0290939F02A093A002B093A102E8
:1016D000BF91AF919F918F913F912F910F900FBE2E
:1016E0000F901F901895DC01FB0112968C911297B8
:1016F00090E02481358182179307D1F49181808114
:10170000813A31F481E0913091F0933089F411C045
:10171000813271F49B3021F482811F968C9305C035
:101720009A3031F4828150968C9381E00895089527
:1017300080E00895DC01FB0188E4808389E48183F3
:1017400084E482831D969C911D979F709F5B938379
:101750001D968D919C911E9724E0969587952A95CC
:10176000E1F78F708F5B848385E00895FC018281AF
:101770008F5BFB01808381E0089590E0FC0131974D
:10178000EF30F105B0F5EA5AFF4F0C943415809113
:1017900080008F7703C0809180008F7D80938000D0
:1017A000089580918000877FF9CF84B58F7702C03C
:1017B00084B58F7D84BD0895809190008F7707C098
:1017C000809190008F7D03C080919000877F8093EF
:1017D000900008958091C0008F7703C08091C00071
:1017E0008F7D8093C00008958091C200877F809391
:1017F000C2000895EF92FF920F931F93CF93DF9350
:10180000FB012081213851F52381223239F5DC0199
:1018100012962C9130E04481558142175307F1F420
:10182000EC010B851C85E12CF12C0115110591F0C3
:10183000F801448155816281738180E80E945208D9
:101840008F3FFFEF9F0769F0E80EF91ED8010D9159
:101850001C91EBCF81E08F87C70105C080E090E04D
:1018600002C08FEF9FEFDF91CF911F910F91FF90FB
:10187000EF900895CF93DF93CDB7DEB769970FB69A
:10188000F894DEBF0FBECDBFFC01DB018C918F5FF2
:101890008C93BE016F5F7F4F89E1DB011D928A95BA
:1018A000E9F729E0298384E08A8391E09D8383E03E
:1018B0008E832A8721E22B879C879D879F8722E240
:1018C000288B27E02B8B25E02C8B8E8B20E430E0BF
:1018D000388F2F8B998F82818B8395858685998B05
:1018E0008A8B838180688D8B49E150E080E00E9483
:1018F000520869960FB6F894DEBF0FBECDBFDF91D8
:10190000CF910895CF93DF93282F30E0F901EC5564
:10191000FE4F8491F901EB57FE4FD491F901EA593A
:10192000FE4FC491CC2389F081110E94BD0BEC2F96
:10193000F0E0EE0FFF1FE85AFE4FA591B4918FB76C
:10194000F894EC91ED2BEC938FBFDF91CF9108953C
:10195000009769F0FC0101900020E9F73197AF0191
:10196000481B590BBC0186EA92E00C94980380E076
:1019700090E008958F929F92AF92BF92CF92DF92A4
:10198000EF92FF920F931F93CF93DF93CDB7DEB704
:10199000A1970FB6F894DEBF0FBECDBF6B017C01DF
:1019A00097FF2BC06DE286EA92E00E94C5018C0190
:1019B00022273327A9012C193D094E095F0919A2D5
:1019C000CE0181967C019AE0892E912CA12CB12C1C
:1019D000CA01B901A50194010E94DF14605DF701FD
:1019E00062937F01211531054105510589F7CF012A
:1019F0000E94A80C800F911F1DC09B01AC0119A271
:101A00008E010F5D1F4F8AE0C82ED12CE12CF12CE6
:101A1000CA01B901A70196010E94DF14605DF801B7
:101A200062938F01211531054105510589F7CF01D9
:101A30000E94A80CA1960FB6F894DEBF0FBECDBFD2
:101A4000DF91CF911F910F91FF90EF90DF90CF909A
:101A5000BF90AF909F908F9008952091A302211185
:101A600003C08FEF9FEF08955FB7F89422E02093B3
:101A7000E9002091F20030E01216130614F421E080
:101A800030E0422FFC0184E6415038F0289A8093E0
:101A9000A2029091F1009193F7CF2115310521F029
:101AA0008091F200882319F05FBFC90108958BE689
:101AB0008093E800F9CF80912A0381110DC082E064
:101AC0008093260384E080932703109229031092C9
:101AD000280381E080932A0386E293E0089581E061
:101AE0008093FA028093FB0220E033E03093FD0202
:101AF0002093FC021092FF021092FE0223E731E0D5
:101B00003093F7022093F602109202031092010321
:101B1000109204031092030380930503809306033D
:101B200081EC809300030E945B0DFC012181809178
:101B3000FA0290E0820F911D0897C4F5A281B3814B
:101B4000109729F486EF92E0938382830EC0189653
:101B50008D919C911997009711F0DC01F8CF86EFD9
:101B600092E019969C938E93189780818093F80247
:101B700081818093F90290818091FB02890F80839B
:101B800080E09091FA02891788F4A091FC02B0914C
:101B9000FD02A80FB11D9C91A181B0E0AE5BBE4FCC
:101BA0009C9391819F5F91838F5FEBCF0895CF933B
:101BB000DF93282F30E0F901EC55FE4F8491F901B5
:101BC000EB57FE4FD491F901EA59FE4FC491CC2353
:101BD00091F081110E94BD0BEC2FF0E0EE0FFF1F82
:101BE000E65BFE4FA591B491EC91ED2381E090E08E
:101BF00021F480E002C080E090E0DF91CF91089571
:101C00003FB7F89480919E0290919F02A091A0020C
:101C1000B091A10226B5A89B05C02F3F19F00196EF
:101C2000A11DB11D3FBFBA2FA92F982F8827820F62
:101C3000911DA11DB11DBC01CD0142E0660F771FB2
:101C4000881F991F4A95D1F708958F929F92AF925E
:101C5000BF92CF92DF92EF92FF926B017C010E94C4
:101C6000000E4B015C01C114D104E104F104F1F058
:101C70000E94000EDC01CB0188199909AA09BB0951
:101C8000883E9340A105B10570F321E0C21AD10846
:101C9000E108F10888EE880E83E0981EA11CB11CB3
:101CA000C114D104E104F10419F7DDCFFF90EF90E6
:101CB000DF90CF90BF90AF909F908F9008952FB7F7
:101CC000F89460919A0270919B0280919C0290918D
:101CD0009D022FBF08953F924F925F926F927F9225
:101CE0008F929F92AF92BF92CF92DF92EF92FF922C
:101CF0000F931F93CF93DF9300D01F92CDB7DEB722
:101D0000F090190380911C0390911D03A0911E0374
:101D1000B0911F03892B8A2B8B2BE9F00E94000EB8
:101D2000009138031091390320913A0330913B031D
:101D3000DC01CB01801B910BA20BB30B00911C03A8
:101D400010911D0320911E0330911F0380179107EE
:101D5000A207B307B8F20E94000E60933803709395
:101D6000390380933A0390933B03E0912403F0916D
:101D70002503309759F04091200350912103609141
:101D80002203709123038F2D0995F82E0091A40250
:101D90001091A5024F2C512C612C712C01151105AD
:101DA00009F45FC0D8011C96EC901C9780911A032F
:101DB00090911B038436910510F41C961C92D80157
:101DC000ED91FC91A280B38019821A821B82F110DE
:101DD00014C0F80145855685628173819E012F5F8D
:101DE0003F4FC801F5010995D8011C96EC921C974C
:101DF00014960D911C911597D1CFF8013696CE010E
:101E000001966C01480199E0890E911C21912223D1
:101E100009F132803320F1F0822F90E0A0E0B0E0B1
:101E20009C01AD012F5F3F4F4F4F5F4FC301B20188
:101E30000E9410159B01AC01832D90E0A0E0B0E062
:101E4000BC01CD016F5F7F4F8F4F9F4F0E941015D8
:101E5000D6018C93BFEFCB1ADB0AE815F905B1F672
:101E6000B8CF80913603909137038C010F5F1F4FDD
:101E7000109337030093360349979CF10E945F0E3D
:101E80004B015C0188EE93E0089FB001099F700D43
:101E9000189F700D1124072E000C880B990BC09011
:101EA0003203D0903303E0903403F0903503A50162
:101EB00094012C193D094E095F090E94DF143093EB
:101EC0001B0320931A0310923703109236030E94CB
:101ED0005F0E6093320370933303809334039093C7
:101EE00035030F900F900F90DF91CF911F910F91BD
:101EF000FF90EF90DF90CF90BF90AF909F908F902A
:101F00007F906F905F904F903F900895CF93DF93B5
:101F100000D000D000D0CDB7DEB7789484B5826011
:101F200084BD84B5816084BD85B5826085BD85B57D
:101F3000816085BD80916E00816080936E001092FB
:101F40008100809181008260809381008091810076
:101F50008160809381008091800081608093800007
:101F600080919100826080939100809191008160C6
:101F70008093910080919000816080939000809187
:101F8000C10084608093C1008091C1008260809311
:101F9000C1008091C10081608093C1008091C30025
:101FA00081608093C3008091C00082608093C000F4
:101FB0008091C20081608093C20080917A00846029
:101FC00080937A0080917A00826080937A00809179
:101FD0007A00816080937A0080917A008068809393
:101FE0007A001092A30210921702109216028091AA
:101FF000D70081608093D70080EA8093D80089B5AC
:10200000806189BD89B5826089BD09B400FEFDCFBC
:1020100061E070E080E090E00E94250E8091D800A1
:102020008F7C80618093D8008091E000807F8093D6
:10203000E0008091E1008E7E8093E1008DE080934E
:10204000E200559A209A5D98289888E0E1E1F3E053
:10205000DF011D928A95E9F748E050E0BF018FE06B
:1020600093E00E94F0038FEF9FEF9093B302809371
:10207000B20283E991E00E94A80C85EA91E00E94F7
:10208000A80CC12CD12C7601C394F6013197EE0F28
:10209000FF1FE05DFE4F808191819927FC01EB5786
:1020A000FE4F2491FC01EA59FE4F84918823D9F018
:1020B00090E0880F991FFC01E45CFE4FA591B4915C
:1020C000FC01E85AFE4F459154915A8349839FB7CA
:1020D000F8948C91E22FE0958E238C93DA018C9109
:1020E000E823EC939FBF88EA91E00E94A80CC70107
:1020F000B6010E94BA0C85EA91E00E94A80CBFEFDD
:10210000CB1ADB0AEB0AFB0AEAE0CE16D104E104A3
:10211000F10409F0BACF82E00E94820C83E00E94B1
:10212000820C85EB96E090932701809326018091A5
:1021300069008C7F816080936900E89A83E796E06C
:10214000909329018093280180916900837F8460A6
:1021500080936900E99A80912F02811145C0109205
:102160002102109220028FEF809324028093250297
:10217000809326028093270280932802809329026D
:1021800081E080932A0210922C0210922B0210926E
:102190002302109222028091A4029091A502892B21
:1021A00031F48EE192E09093A5028093A402E09135
:1021B0001C02F0911D02309721F08EE192E0958390
:1021C00084838EE192E090931D0280931C02109212
:1021D0002E0210922D0281E691E090931F028093CF
:1021E0001E0281E080932F023F9A87E392E0909352
:1021F00021028093200288E090E090932C0280934B
:102200002B0280911C0390911D03A0911E03B0919D
:102210001F03843CF9E09F07A105B10520F484EC7D
:1022200099E0A0E0B0E080931C0390931D03A0937D
:102230001E03B0931F030CE4E02E02E0F02EE7E350
:10224000F2E01082118212823396EE16FF06C9F771
:102250000E946B0E07E312E019828981880F880FB4
:10226000D8018C938981880F11968C931197E981FD
:102270001296EC930E946B0E66E970E080E090E0AD
:102280000E94250E0D5F1F4FF981F85FF983F83327
:1022900021F7E7E3F2E01082118212823396EE1604
:1022A000FF06C9F70E946B0E812C912C54018A9471
:1022B00010E0212E10E0312E11E00E945F0EC09040
:1022C0009502D0909602E0909702F090980228E054
:1022D000C20ED11CE11CF11C6C157D058E059F05FD
:1022E00008F492C047E352E05E834D83C12CD12CA9
:1022F0007601F601EE0FFF1FEF5AFD4F80819181AD
:10230000892B09F43FC087EB91E00E94A80CC7011C
:10231000B6010E94BA0C8AEB91E00E94A80C85EAF3
:1023200091E00E94A80CC6010E94E90A0E9456147E
:1023300069837A838B839C830E9456142B013C0112
:102340000E945614A50194010E94AD14AD81BE8176
:102350006C93C301B201A50194010E94AD14ED81FB
:10236000FE81618369817A818B819C8128E730E0DD
:1023700040E050E00E94AD14AD81BE8112966C9396
:102380000E946B0EBFEFCB1ADB0AEB0AFB0AED8152
:10239000FE813396FE83ED83F9E0CF16D104E1048C
:1023A000F10409F0A6CF80918C02882319F1809165
:1023B0008902882339F086EC91E00E94A80C89E01C
:1023C00090E006C085EE91E00E94A80C8AE090E0C3
:1023D0000E94E90A60918A0270918B02072E000C1C
:1023E000880B990B0E94BA0C85EA91E00E94A80C18
:1023F00010928C020E945F0E609395027093960279
:10240000809397029093980260911802709119023C
:1024100080911A0290911B0222E030E040E050E0EF
:102420000E94AD1420939102309392024093930244
:1024300050939402409191025091920260919302C4
:102440007091940280918D0290918E02A0918F02E2
:10245000B0919002481759076A077B0709F4CBC06F
:1024600010938C028091910290919202A09193021C
:10247000B091940240918D0250918E0260918F0232
:1024800070919002841B950BA60BB70B18161906BA
:102490001A061B068CF48091910290919202A091F1
:1024A0009302B091940240918D0250918E026091FE
:1024B0008F027091900210C080918D0290918E02D7
:1024C000A0918F02B091900240919102509192029E
:1024D0006091930270919402841B950B90938B02F0
:1024E00080938A02409191025091920260919302EE
:1024F0007091940280918D0290918E02A0918F0232
:10250000B091900284179507A607B7071CF01093A7
:10251000890202C0109289028091910290919202E8
:10252000A0919302B0919402C0909102D090920237
:10253000E0909302F0909402181619061A061B06F2
:1025400044F0F094E094D094C094C11CD11CE11CE0
:10255000F11CA0918A02B0918B0227E030E00E942A
:102560003A15A70196010E94AD1469017A010E94F3
:10257000561469837A838B839C830E9456142B01A3
:102580003C010E9456149601220F331F2C0D3D1D55
:10259000A901495C5D4F5E834D83A50194010E94B2
:1025A000AD14AD81BE816C93C301B201A50194014C
:1025B0000E94AD14ED81FE81618369817A818B81F6
:1025C0009C81A50194010E94AD14AD81BE8112963B
:1025D0006C930E946B0E8091910290919202A09157
:1025E0009302B091940280938D0290938E02A093F7
:1025F0008F02B09390020E945F0E709388026093E6
:1026000087021A821982E980FA80EE0CFF1CF7011A
:10261000E05DFE4F808191810E94D70DF701EB585C
:10262000FD4F91838083E981FA813196FA83E983B2
:10263000399749F768E270E080E090E00E94250E4B
:1026400080E090E09C01220F331FF901EB58FD4F11
:1026500040815181F901ED59FD4F5183408301962D
:102660008930910579F768E270E080E090E00E949F
:10267000250E1A821982E980FA80EE0CFF1CF70100
:10268000E05DFE4F808191810E94D70DF701EB58EC
:10269000FD4F9183808329813A812F5F3F4F3A8399
:1026A00029832930310539F720E030E0C901880F4E
:1026B000991FFC01ED59FD4F60817181DC01AB5820
:1026C000BD4F4D915C911197FC01EF5AFD4F64177E
:1026D000750729F48D919C919183808302C01182AA
:1026E00010822F5F3F4F2930310501F70E945F0EA6
:1026F0002091870230918802621B730B7093500205
:1027000060934F0286EA92E00E94EB0121143104AB
:1027100009F4D3CD0E940000D0CD1092A9021092EE
:10272000A80288EE93E0A0E0B0E08093AA02909324
:10273000AB02A093AC02B093AD028FE791E090930F
:10274000A7028093A6028FEF9FEF9093B30280932E
:10275000B20281E991E09093100380930F0380917E
:102760004203811113C010923D0310923C0383EC8D
:1027700091E090933F0380933E0389E190E0909332
:1027800041038093400381E08093420380910703DB
:10279000811105C00E946F0D81E080930703E091D5
:1027A0000103F0910203309739F48CE393E09093A6
:1027B0000203809301030AC080819181009711F088
:1027C000FC01FACF8CE393E0918380832091030393
:1027D000309104038091400390914103820F931F35
:1027E00090930403809303038FEF80931903109257
:1027F0001B0310921A0310922503109224038FEFEB
:102800009FEFDC018093200390932103A093220388
:10281000B093230308958F929F92AF92BF92CF926D
:10282000DF92EF92FF92CF93DF93EC016881798181
:102830008A819B81611571058105910521F464E20E
:1028400079ED8BE597E02DE133EF41E050E00E9418
:10285000AD1449015A019B01AC01A7EAB1E40E9401
:10286000CC146B017C01ACEEB4EFA50194010E9485
:10287000DA14DC01CB018C0D9D1DAE1DBF1DB7FF11
:1028800003C00197A109B04888839983AA83BB83B9
:10289000BC01CD019F77DF91CF91FF90EF90DF904A
:1028A000CF90BF90AF909F908F9008958F929F92FE
:1028B000AF92BF92CF92DF92EF92FF926091490167
:1028C00070914A0180914B0190914C016115710505
:1028D0008105910521F464E279ED8BE597E02DE126
:1028E00033EF41E050E00E94AD1449015A019B01D1
:1028F000AC01A7EAB1E40E94CC146B017C01ACEE00
:10290000B4EFA50194010E94DA14DC01CB018C0D17
:102910009D1DAE1DBF1DB7FF03C00197A109B048A3
:102920008093490190934A01A0934B01B0934C01CD
:10293000BC01CD019F77FF90EF90DF90CF90BF90CB
:10294000AF909F908F9008956093490170934A01D2
:1029500080934B0190934C010895052E97FB1EF434
:1029600000940E94C41457FD07D00E94DF1407FC96
:1029700003D04EF40C94C414509540953095219595
:102980003F4F4F4F5F4F089590958095709561959B
:102990007F4F8F4F9F4F08950E940115A59F900D67
:1029A000B49F900DA49F800D911D11240895B7FF31
:1029B0000C94CC140E94CC14821B930B0895A1E2BA
:1029C0001A2EAA1BBB1BFD010DC0AA1FBB1FEE1FA9
:1029D000FF1FA217B307E407F50720F0A21BB30BF4
:1029E000E40BF50B661F771F881F991F1A9469F770
:1029F00060957095809590959B01AC01BD01CF01CC
:102A00000895A29FB001B39FC001A39F700D811DC7
:102A10001124911DB29F700D811D1124911D0895E7
:102A2000DB018F939F930E94CC14BF91AF91A29F23
:102A3000800D911DA39F900DB29F900D11240895BC
:102A400097FB072E16F4009407D077FD09D00E945B
:102A5000411507FC05D03EF4909581959F4F089550
:102A6000709561957F4F0895EE0FFF1F0590F491CB
:102A7000E02D09940E940115B7FF0895821B930B66
:102A80000895AA1BBB1B51E107C0AA1FBB1FA617B5
:102A9000B70710F0A61BB70B881F991F5A95A9F707
:102AA00080959095BC01CD01089581E090E0F89467
:082AB0000C945A15F894FFCFB5
:102AB80010270000B000B600B50092019201920103
:102AC80092019201E200E900EA00FFFFFFFF00E146
:102AD800000000000000190119011901190119016C
:102AE8000C000A00080006000B000900070005009A
:102AF800040000C180810000000100000000000007
:102B080000270B270B270BD402F802FC0200000059
:102B18000091024D024B02D402F802480220040040
:102B2800000000730B3A0CFA0B9A0B00000000C56A
:102B3800019803E601DB01EB01D203AE03000000BC
:102B480000F003742E626F61726420636F6E6E65AD
:102B580063746564000D0A005365742050696E4DF6
:102B68006F6465206F66205357002067656472C3E1
:102B7800BC636B742E0056657272696E6765726508
:102B880020646965204C6175747374C3A4726B65A5
:102B980020756D2000657268C3B668652064696534
:102BA800204C6175747374C3A4726B6520756D20B5
:022BB80000001B
:00000001FF
